:100000000C94DE020C9406030C9406030C94060375
:100010000C9406030C9406030C9406030C9406033C
:100020000C9406030C9406030C946D1C0C94381D60
:100030000C94F4140C9406030C9406030C9406031D
:100040000C9406030C9406030C9406030C9406030C
:100050000C9406030C9406030C9406030C94AA1447
:100060000C9406030C9406030C9406030C940603EC
:100070000C9406030C9406030C9406030C940603DC
:100080000C9406030C9406030C9406030C940603CC
:100090000C9406030C9406030C9406030C940603BC
:1000A0000C9406030C9406030C9406038E229E22E5
:1000B000A622D722B2234B2335237A236523922409
:1000C0000624A324E6247224CE2396232125FA2491
:1000D00002251925292531250A25122539251F260E
:1000E0005A2562257A258E259525C925D425E6250C
:1000F000F82500262C263E2646265E2669267026F2
:1001000024279B26A326BB26C626EC262227482882
:100110004F28542847294F292D2A772AAA2AB22A5C
:10012000BB2ACA2AE42AEA2A51295D29342A572AF5
:100130008C2AAF29702A852A6D29B729D5290D2A3D
:10014000050C5A0C5A0C5A0C5A0C5A0C5A0C5A0CD4
:100150009B049E04A204A604A904AD04B004B40444
:100160005A0C5A0C5A0C5A0CB7045A0C5A0C5A0C0A
:100170005A0C5A0C5A0C5A0C5A0C5A0C5A0C5A0C4F
:100180005A0C5A0C5A0C5A0C5A0C5A0C5A0C5A0C3F
:100190005A0C5A0C5A0C5A0C5A0C5A0C5A0C5A0C2F
:1001A0005A0C5A0C5A0C5A0C5A0C5A0C5A0C5A0C1F
:1001B0005A0C5A0C5A0C5A0C91059A05A505B5050E
:1001C000BF05D205E505F7051E072A07260809061B
:1001D000640670069E06AC06E306EF060F07B2093A
:1001E0001B079B085A0C5A0C5A0C5A0C5A0C5A0CE6
:1001F0005A0C5A0C5A0C5A0C5A0C5A0C5A0C5A0CCF
:100200005A0C5A0C5A0C5A0C5A0C5A0C5A0C5A0CBE
:100210005A0C5A0C5A0C5A0C5A0C5A0CE5081E0966
:100220004B0964099C09B609E509000A1B0A5A0C26
:100230003B0A950ABD0AEF0AFC0A290B5A0C560B19
:10024000880B8B0B8E0B910BDB0B5A0C5A0C5A0C38
:100250005A0C5A0C5A0C5A0CF80BC904CE04D3048D
:10026000D804DD04E204E704EC04F104F604FB0422
:10027000000505050A050F05140519051E052305CA
:1002800028052D05320537053C05410546054B057A
:10029000500555055A055F05640569056E0573052A
:1002A00078057D05820587058C05F317F617E51798
:1002B000E917ED17171817181718FA17FE1702186D
:1002C00008180C1817181218070605040100080A68
:1002D0000B0C0D09982F8A4291443771CFFBC0B5A2
:1002E000A5DBB5E95BC25639F111F159A4823F9201
:1002F000D55E1CAB98AA07D8015B8312BE8531245A
:10030000C37D0C55745DBE72FEB1DE80A706DC9B1A
:1003100074F19BC1C1699BE48647BEEFC69DC10FC6
:10032000CCA10C246F2CE92DAA84744ADCA9B05C02
:10033000DA88F97652513E986DC631A8C82703B0C5
:10034000C77F59BFF30BE0C64791A7D55163CA06D3
:1003500067292914850AB72738211B2EFC6D2C4DDF
:10036000130D385354730A65BB0A6A762EC9C281CD
:10037000852C7292A1E8BFA24B661AA8708B4BC263
:10038000A3516CC719E892D1240699D685350EF48D
:1003900070A06A1016C1A419086C371E4C77482744
:1003A000B5BCB034B30C1C394AAAD84E4FCA9C5BBA
:1003B000F36F2E68EE828F746F63A5781478C8840B
:1003C0000802C78CFAFFBE90EB6C50A4F7A3F9BEED
:1003D000F27871C600000000250028002B002E00D6
:1003E000310000000000240027002A002D0030000A
:1003F00004040404040304050202020204030202CA
:1004000002020606060606060404020202040405A9
:100410000408020110408040102040804080080203
:100420000401804020100201108010204040200470
:10043000000000002300260029002C002F000000EF
:10044000000200090F0000030401000C000000007E
:10045000000000000000000000000000000000009C
:1004600000000000002A2B2800000000000000000F
:10047000000000000000000000000000002C9EB4FE
:10048000A0A1A2A434A6A7A5AE362D3738271E1FDB
:1004900020212223242526B333B62EB7B89F848586
:1004A000868788898A8B8C8D8E8F90919293949574
:1004B000969798999A9B9C9D2F3130A3AD35040552
:1004C000060708090A0B0C0D0E0F10111213141554
:1004D000161718191A1B1C1DAFB1B0B500080B0078
:1004E00002020201000904000001020200000524CA
:1004F0000010010524010101042402060524060060
:10050000010705810310004009040100020A0000F0
:1005100000070502024000000705830240000004B6
:1005200003090412010002EF020140C016010F008E
:100530000101020301556E6B6E6F776E0053696E99
:1005400064656E4C6967687467756E00050109061D
:10055000A1018502050719E029E7150025017501AC
:1005600095088102950175088103950675081500A7
:1005700025650507190029658100C005010902A14B
:10058000010901A1008501050919012903150025AB
:100590000195037501810295017505810305010926
:1005A00030093116000026FF7F36000046FF7F75B8
:1005B0001095028102C0C000DC2FC02F11241FBE85
:1005C000CFEFDAE0DEBFCDBF12E0A0E0B1E0EEE4B5
:1005D000F7E602C005900D92A239B107D9F727E0DE
:1005E000A2E9B2E001C01D92AF31B207E1F712E01B
:1005F000CDEDD2E004C02197FE010E94EA31CC3D4E
:10060000D107C9F70E94DD200C949A330C940000A6
:10061000CF93DF93EB019C01AFEFBFE70E94C7319F
:1006200020916B0530916C0540916D0550916E05E0
:100630000E94A53130936805209367059E01AFEFB6
:10064000BFE70E94C73120916F053091700540913E
:100650007105509172050E94A53130936A0520936F
:10066000690580917305882321F0DF91CF910C9467
:100670001320DF91CF9108951092690421E3209314
:10068000250410922404E8ECF2E0E49120917B0030
:10069000E3FB882780F990E035E0880F991F3A95B1
:1006A000E1F7922F9F7D892B80937B00E770E064B8
:1006B000E0937C0080917A00806480937A0080913E
:1006C0007A0086FDFCCF609178008091790070E01F
:1006D000782B072E000C880B990B6115710581058D
:1006E000910511F00E945431109224031092580485
:1006F0001092870410922C03109257041092230436
:100700001092560410922204109221041092200498
:1007100010921F0410921E041092890410928804F3
:100720008FEF9FE7A0E0B0E080936B0590936C059E
:10073000A0936D05B0936E0580936F05909370053F
:10074000A0937105B093720581E0809373051092B8
:100750008604109255041092FE021092FD0210922F
:100760001A0310921903109212031092110310929F
:1007700022031092210310921E0310921D03109267
:100780000E0310920D0310920A03109209031092A7
:1007900006031092050310920203109201031092B7
:1007A0001603109215031092FC021092FB02109295
:1007B0001803109217031092100310920F03109257
:1007C000200310921F0310921C0310921B0310921F
:1007D0000C0310920B03109208031092070310925F
:1007E000040310920303109200031092FF02109270
:1007F00014031092130308952F923F924F925F9229
:100800006F927F928F929F92AF92BF92CF92DF9220
:10081000EF92FF920F931F93CF93DF93CDB7DEB785
:10082000C65ED1090FB6F894DEBF0FBECDBF1091E2
:1008300069041130A1F028F0133009F46EC00C9453
:100840005E0C8091FA02833011F00C94640C8FEFEF
:100850009FEF90931705809316050C945A0C8AE02D
:1008600095E00E949F0C079714F40C94640C10936D
:1008700068048AE095E00E941712809367048A3A20
:1008800029F08AEF809366040C94640C8AE095E06A
:100890000E941712809366048AE095E00E94171266
:1008A000E82E80936404909365048AE095E00E94AA
:1008B00017128C0190936304809362048AE095E0A0
:1008C0000E941712F82E80936004909361048AE0CE
:1008D00095E00E94171290935F0480935E0440E0BD
:1008E00050E05E2D040F151F10935D0400935C040F
:1008F00040E050E05F2D9A01280F391F30935B04D0
:1009000020935A048AE095E00E94171280935904BC
:100910008B3B09F0B6CF83E0CEC7E09166048E2F03
:1009200090E0FC01B897ED38F10508F0C3C7E05638
:10093000FF4F0C94EA3110925804BCC781E08093B9
:100940005804B9C781E080932403B5C710922403EB
:10095000B1C781E080935704AEC710925704AAC76D
:1009600081E080935604A7C710925604A3C78091D4
:100970005A0490915B04E0915C04F0915D04E456AC
:10098000F109E832F10508F095C7E35DFE4F0C94DC
:10099000EA319093FE028093FD028CC790931A0374
:1009A0008093190387C7909312038093110382C722
:1009B00090932203809321037DC790931E0380931D
:1009C0001D0378C790930E0380930D0373C7909314
:1009D0000A03809309036EC790930603809305036F
:1009E00069C7909302038093010364C79093160331
:1009F000809315035FC79093FC028093FB025AC754
:100A0000909318038093170355C790931003809316
:100A10000F0350C79093200380931F034BC79093FD
:100A20001C0380931B0346C790930C0380930B0316
:100A300041C790930803809307033CC79093040336
:100A40008093030337C7909300038093FF0232C75C
:100A500090931403809313032DC790934D048093B8
:100A60004C0428C790934B0480934A0423C7909367
:100A70004904809348041EC790934704809346041A
:100A800019C7909345048093440414C7909343047A
:100A9000809342040FC790934104809340040AC797
:100AA00090933F0480933E0405C790933D04809348
:100AB0003C0400C790933B0480933A04FBC6909398
:100AC000390480933804F6C6909337048093360433
:100AD000F1C69093350480933404ECC690933304AC
:100AE00080933204E7C69093310480933004E2C6C9
:100AF00090932F0480932E04DDC690932D04809351
:100B00002C04D8C690932B0480932A04D3C69093C8
:100B1000290480932804CEC690932704809326044A
:100B2000C9C681E792E00E94842085E892E00E9495
:100B30008420C0C661E08AE095E00E947E0C65E0FA
:100B40008AE095E00E947E0CB5C60AE010E0C8017C
:100B50000E94031C682F8AE095E00E947E0C0F5FC4
:100B60001F4F0931110599F7A5C680915C0490913A
:100B70005D0460915A040A960E94011C9BC680E0A5
:100B800090E00E94031C682F8AE095E00E947E0C92
:100B900081E090E00E94031C682F8AE095E00E94AB
:100BA0007E0C88C682E090E00E94031C682F8AE0D9
:100BB00095E00E947E0C83E090E00E94031C682F69
:100BC0008AE095E00E947E0C75C66091640480E026
:100BD00090E00E94011C6091620481E090E00E941C
:100BE000011C61E08AE095E00E947E0C63C6609182
:100BF000640482E090E00E94011C6091620483E042
:100C000090E00E94011C61E08AE095E00E947E0C69
:100C100051C68EE190E00E94031C682F8AE095E0A7
:100C20000E947E0C8FE190E00E94031C682F8AE0F6
:100C300095E00E947E0C80E290E00E94031C682FE9
:100C40008AE095E00E947E0C81E290E00E94031C05
:100C5000682F8AE095E00E947E0C82E290E00E947C
:100C6000031C682F8AE095E00E947E0C83E290E0EE
:100C70000E94031C682F8AE095E00E947E0C84E2AB
:100C800090E00E94031C682F8AE095E00E947E0C91
:100C900085E290E00E94031C682F8AE095E00E94A4
:100CA0007E0C86E290E00E94031C682F8AE095E0AB
:100CB0000E947E0C87E290E00E94031C682F8AE06D
:100CC00095E00E947E0CF6C580915C0490915D04D5
:100CD0008A30910508F0EEC560915A044E9639C0ED
:100CE00089E190E00E94031C682F8AE095E00E9451
:100CF0007E0C8AE190E00E94031C682F8AE095E058
:100D00000E947E0C8BE190E00E94031C682F8AE019
:100D100095E00E947E0C8CE190E00E94031C682FFD
:100D20008AE095E00E947E0C8DE190E00E94031C19
:100D3000682F8AE095E00E947E0CBCC580915C041F
:100D400090915D048530910508F0B4C560915A0416
:100D500049960E94011CAEC588E290E00E94031CE7
:100D6000682F8AE095E00E947E0C89E290E00E9464
:100D7000031C682F8AE095E00E947E0C8AE290E0D6
:100D80000E94031C682F8AE095E00E947E0C8BE293
:100D900090E00E94031C682F8AE095E00E947E0C80
:100DA0008CE290E00E94031C682F8AE095E00E948C
:100DB0007E0C8DE290E00E94031C682F8AE095E093
:100DC0000E947E0C77C580915C0490915D04863012
:100DD000910508F06FC560915A048896BACF80914A
:100DE0005C0490915D048A34910509F063C580919B
:100DF0005A0490915B04803C910509F05BC502E3C5
:100E000010E0C8010E94031C682F8AE095E00E9450
:100E10007E0C0F5F1F4F0235110599F74BC580916E
:100E20005C0490915D048032910508F043C56091A7
:100E30005A04C2968ECF1092F8023CC58091550498
:100E4000882311F061E001C060E08AE095E00E9433
:100E50007E0C30C57E0121E1E20EF11C412C512CAB
:100E600032014A941E0181E2280E311C07ECA02EAB
:100E7000B12CAC0EBD1E90E2A90EB11C80E6EDE1D6
:100E8000F1E0DE01119601900D928A95E1F78E0155
:100E90000F5F1F4F0E944F31A30192010E947331D7
:100EA000F80161938F0167E070E080E090E00E94BC
:100EB00064140E151F0571F787010E949E14A3018B
:100EC00092010E94A531F80161938F016BE070E0FF
:100ED00080E090E00E9464140215130571F7E09120
:100EE0000006F09101060084F185E02D80E096E097
:100EF0000995E0910006F09101060284F385E02D4A
:100F000040E650E0BE016F5F7F4F80E096E00995BC
:100F1000E0910006F09101060484F585E02D40E2A1
:100F200050E0BE0169537F4F80E096E0099586E46A
:100F3000EEE7F1E0DE01AF59BF4F01900D928A95C7
:100F4000E1F78E0109531F4FCE018F599F4F6C015E
:100F50000A151B0571F04801F80161918F018AE0C3
:100F600095E00E947E0CF4018081F60181936F016F
:100F7000EFCF8AE095E00E949F0C80973CF46AE0F6
:100F800070E080E090E00E946414F3CF8E01095578
:100F90001F4F8AE095E00E949F0C892B41F08AE068
:100FA00095E00E941712F80181938F01F2CFE09132
:100FB0000006F09101060084F185E02D80E096E0C6
:100FC0000995E0910006F09101060284F385E02D79
:100FD00040E450E0BE016F597F4F80E096E00995F4
:100FE000E0910006F09101060484F585E02D40E2D1
:100FF00050E0BE0169537F4F80E096E0099540E2E2
:1010000050E0BE0169557F4FCE0189539F4F0E942A
:101010007D33892B79F088E892E00E94842086E86D
:1010200092E00E94842064E670E080E090E00E94FC
:10103000641424CF8DE892E00E94842086E892E038
:101040000E94842081E08093550435C410911201E0
:101050006AE070E080E090E00E9464141123B1F334
:101060008AE095E00E949F0C80973CF46AE070E073
:1010700080E090E00E946414F3CF89E4E5ECF1E0B5
:10108000DE01119601900D928A95E1F78E010F5FB6
:101090001F4F7E01F1E2EF0EF11CD09012016AE0C9
:1010A00070E080E090E00E946414DD20B1F38AE0FB
:1010B00095E00E941712F80181938F01EE15FF054C
:1010C00061F7E0910006F09101060084F185E02DC2
:1010D00080E096E00995E0910006F0910106028417
:1010E000F385E02D49E450E0BE016F5F7F4F80E063
:1010F00096E00995E0910006F09101060484F585DB
:10110000E02D40E250E0BE016F597F4F80E096E055
:1011100009958E010F591F4F7801F0E2EF0EF11C77
:10112000F80161918F018AE095E00E947E0C0E1516
:101130001F05B1F7BFC38091540481110DC081E038
:10114000809354040E949E14609350047093510441
:1011500080935204909353048091BC000E943F17E7
:10116000892B21F06BE080E00E94501760915004C1
:101170007091510480915204909153042FEF30E00C
:1011800040E050E00E94733170E07093E50260939C
:10119000E40211E01093F60284E490E09093E302FD
:1011A0008093E2021093F5021093F8020E94D81681
:1011B00090916A048091450398137CC390916B04CD
:1011C00080914603981376C37CC30E943F17682F13
:1011D0008AE095E00E947E0C6091F9028AE095E039
:1011E0000E947E0C6091F7028AE095E00E947E0CDE
:1011F0006091BC008AE095E00E947E0C0E943F173F
:10120000892B21F06EE080E00E94501780916404E9
:101210009091650499279093E5028093E40281E020
:101220008093F60220916204309163043327309357
:10123000E3022093E2028093F50295C06091DE0400
:10124000660F8091E004680F660F8091E104680FDB
:10125000660F8091DF04680F8AE095E00E947E0CA3
:101260006091DA028AE095E00E947E0C6091F702BC
:101270008AE095E00E947E0C6091B4028AE095E0DD
:101280000E947E0C0E94C1161092F80269E08EE066
:101290000E9450170FC36091F1028AE095E00E940E
:1012A0007E0C6091F0028AE095E00E947E0C60E086
:1012B0008AE095E00E947E0C60E08AE095E00E9462
:1012C0007E0C0E94B016F6C2E0916404F0916504B1
:1012D000E951FD4F60818AE095E00E947E0CE0912B
:1012E0006404F0916504E951FD4F61818AE095E065
:1012F0000E947E0CE0916404F0916504E951FD4F79
:1013000062818AE095E00E947E0CE0916404F09195
:101310006504E951FD4F63818AE095E00E947E0CEF
:101320001092F8028091F3028111C4C281E080938F
:10133000F3021092E602BEC26091F1028AE095E0EB
:101340000E947E0C6091F0028AE095E00E947E0C83
:1013500060E08AE095E00E947E0C60E08AE095E023
:101360000E947E0C81E08093F802A5C2E0916404A3
:10137000F0916504E15CFC4F60818AE095E00E9499
:101380007E0CE0916404F0916504E15CFC4F6181A6
:101390008AE095E00E947E0CE0916404F09165047F
:1013A000E15CFC4F62818AE095E00E947E0CE09156
:1013B0006404F0916504E15CFC4F63818AE095E090
:1013C0000E947E0C0E949F1675C20E94D8166091E2
:1013D0006B048AE095E00E947E0C60916A048AE0CA
:1013E00095E00E947E0C609149038AE095E00E949E
:1013F0007E0C6091E1028AE095E00E947E0C5AC268
:10140000609152038AE095E00E947E0C6091530344
:101410008AE095E00E947E0C609154038AE095E09A
:101420000E947E0C609155038AE095E00E947E0C3C
:101430000E941F163FC2609152038AE095E00E940D
:101440007E0C609153038AE095E00E947E0C6091CF
:1014500054038AE095E00E947E0C609155038AE077
:1014600095E00E947E0C8091F202811123C281E0FE
:101470008093F2021FC260914E048AE095E00E94C0
:101480007E0C609153038AE095E00E947E0C60918F
:1014900054038AE095E00E947E0C609155038AE037
:1014A00095E00E947E0C80914E04811131C0209104
:1014B0005E0430915F04A6E0220F331FAA95E1F786
:1014C00040916004509161046091640470916504DE
:1014D000CB01842B952BB3E0880F991FBA95E1F7C8
:1014E0007093AF026093AE025093B1024093B0028A
:1014F000845D9E4F8217930708F4C9019093AD0253
:101500008093AC021092B2020E941F1681E005C0C7
:10151000813031F40E94B01682E080934E04CAC13B
:101520000E949F1610924E04C5C120916404309110
:10153000650480913D032130310531F491E09093B1
:101540002303811106C0B6C11092230381110BC081
:10155000B1C180913E03823008F4ACC120E030E09C
:1015600040E06DE4D0C080913E03823008F4A2C117
:1015700020E030E040E06EE4C6C020915E0430918F
:101580005F0486E0220F331F8A95E1F740916004E3
:1015900050916104E091620460916404709165046B
:1015A000CB01842B952BF3E0880F991FFA95E1F777
:1015B0007093AF026093AE025093B1024093B002B9
:1015C000845D9E4F8217930708F4C9019093AD0282
:1015D0008093AC02E093B2020E941F166BC180910F
:1015E000640490916504019721F481E080932A03BB
:1015F00061C110922A035EC181E0209164043091A0
:1016000065042130310509F080E080932D0381E0ED
:1016100020916204309163042130310509F080E0AB
:1016200080932B0381E0209160043091610421308C
:10163000310509F080E08093330381E020915E045E
:1016400030915F042130310509F080E0809331034F
:1016500031C181E02091640430916504213031056D
:1016600009F080E08093340381E02091620430919E
:1016700063042130310509F080E08093300381E07C
:1016800020916004309161042130310509F080E03F
:101690008093360381E020915E0430915F04213015
:1016A000310509F080E08093350304C16091520355
:1016B0008AE095E00E947E0C609153038AE095E0F9
:1016C0000E947E0C609154038AE095E00E947E0C9B
:1016D000609155038AE095E00E947E0C809164043D
:1016E00090913D03992309F4E5C090913E03923017
:1016F00008F4E0C08093E90480958093EA0420E038
:1017000030E042E065E48091B3020E943820D2C00C
:101710000E94C116CFC00E94B016CCC00E949F1676
:10172000C9C06091F9028AE095E00E947E0C609148
:10173000F7028AE095E00E947E0C6091DA028AE06E
:1017400095E00E947E0C40915E045091600480916F
:101750006204909163042091640430916504411106
:1017600007C02093A3028093A2025093A1021BC042
:10177000413059F4332730939802209397029927E8
:1017800090939A02809399020EC0022E000C330BA4
:101790003093A00220939F02082E000C990B909387
:1017A0009E0280939D020E941F16682F8AE095E09A
:1017B0000E947E0C7FC0609153038AE095E00E94F6
:1017C0007E0C609154038AE095E00E947E0C60914B
:1017D00055038AE095E00E947E0C8091640490910C
:1017E00065049093AB028093AA020E941F1662C008
:1017F0008091640490916504019721F481E08093C5
:101800002F0358C010922F0355C080915504882390
:10181000E9F110922C0380915704811104C080914A
:101820005604882399F080915C0490915D0401979F
:101830008E3F9F4740F480915A0490915B0401973A
:101840008E3F9F4718F081E080932C0380915804CD
:1018500081111CC080918704882321F08091860427
:101860008823A1F080914F04882381F08091320376
:1018700081110CC01092860460915A0470915B042F
:1018800080915C0490915D040E94080380912E0376
:10189000882381F068EC8AE095E00E947E0C10922B
:1018A0002E0381E0809332036FEF7FE38FEF9FE39E
:1018B0000E94080381E08093690406C00E943C03F3
:1018C00003C010934F04F6CFCA51DF4F0FB6F89400
:1018D000DEBF0FBECDBFDF91CF911F910F91FF9063
:1018E000EF90DF90CF90BF90AF909F908F907F90C0
:1018F0006F905F904F903F902F900895CF93DF931C
:101900001F92CDB7DEB76983DC01ED91FC910280B7
:10191000F381E02D41E050E0BE016F5F7F4F0995FC
:101920000F90DF91CF91089583E08093E90080913B
:10193000F200882319F08AE38093E8000895FC01FF
:101940008485958597FD0BC09FB7F89482E08093BE
:10195000E9008091F2009FBF90E0019608959FB743
:10196000F89482E08093E9008091F2009FBF90E0BC
:1019700008953FB7F8948091760490917704A091F0
:101980007804B091790426B5A89B05C02F3F19F0C3
:101990000196A11DB11D3FBFBA2FA92F982F8827EF
:1019A000820F911DA11DB11DBC01CD0142E0660F4A
:1019B000771F881F991F4A95D1F708952F923F925C
:1019C0004F925F926F927F928F929F92AF92BF924F
:1019D000CF92DF92EF92FF920F931F93CF93DF93FB
:1019E000CDB7DEB7CC54D1090FB6F894DEBF0FBE29
:1019F000CDBF2D969FAF8EAF2D971C0102E2200E1A
:101A0000311C8E599F4F988F8F8BF10160817181AE
:101A1000828193810E94F0316193719381939193BC
:101A20002F89388DE217F30789F72D96AEADBFAD3C
:101A30002D9712964D915D916D917C9115974FA3C5
:101A400058A769A77AA716964D905D906D907C90E7
:101A500019974BA65CA66DA67EA61A964D905D9032
:101A60006D907C901D974FA658AA69AA7AAA1E96D7
:101A70004D905D906D907C9051974BAA5CAA6DAA99
:101A80007EAA52964D905D906D907C9055974FAA8E
:101A900058AE69AE7AAE56964D905D906D907C9042
:101AA00059974BAE5CAE6DAE7EAE5A964D905D9042
:101AB0006D907C905D9723964CAE5DAE6EAE7FAE22
:101AC00023975E964D905D906D907C9091972796B0
:101AD0004CAE5DAE6EAE7FAE279704ED12E01E8B6E
:101AE0000D8B7301620123962CAD3DAD4EAD5FAD04
:101AF00023972F8F38A349A35AA34BAD5CAD6DAD8F
:101B00007EAD498B5A8B6B8B7C8B6FA978AD89AD81
:101B10009AAD6D837E838F8398878BA99CA9ADA98D
:101B2000BEA98BA39CA3ADA3BEA34FA458A869A82C
:101B30007AA84B8E5C8E6D8E7E8E6BA47CA48DA459
:101B40009EA469867A868B869C868FA098A4A9A479
:101B5000BAA489829A82AB82BC82ED89FE89059102
:101B6000159125913491D1014D905D906D907D90AE
:101B70001D014D815E816F817885B62F672F742F8F
:101B8000452F5B2F400E511E621E731E0D811E815C
:101B90002F81388500951095209530958F8C98A0D1
:101BA000A9A0BAA0082119212A213B2189889A8855
:101BB000AB88BC888D819E81AF81B88588229922AF
:101BC000AA22BB22082519252A253B25040D151D0F
:101BD000261D371D2A013B01440C551C661C771C31
:101BE000411C440C551C661C771C411C4C015D01BA
:101BF0008B2CBA2CA92C982E80FAB794A794979482
:101C00008794B7F884249524A624B7242A013B019D
:101C100040FA779467945794479477F840FA77940A
:101C200067945794479477F840FA77946794579459
:101C3000479477F884249524A624B724800E911E17
:101C4000A21EB31EC80CD91CEA1CFB1C09811A81F8
:101C50002B813C81A02F032F322F212F1A2F000F11
:101C6000111F221F331F011DD901C801880F991FA1
:101C7000AA1FBB1F811D49815A816B817C8140FB5A
:101C8000779567955795479577F940FB77956795D1
:101C90005795479577F98C019D010427152726272D
:101CA000372749815A816B817C81FA01AB01BF01E1
:101CB000440F551F661F771F411D440F551F661F98
:101CC000771F411DDB01CA01880F991FAA1FBB1F87
:101CD000811DB901A801482759276A277B278B8CCA
:101CE0009C8CAD8CBE8C49845A846B847C84842407
:101CF0009524A624B72409811A812B813C81802256
:101D00009122A222B3220B8D1C8D2D8D3E8D04219C
:101D1000152126213721082519252A253B25400F85
:101D2000511F621F731F8BA19CA1ADA1BEA18C0D81
:101D30009D1DAE1DBF1D8D879E87AF87B88BDB01B4
:101D4000CA018C0D9D1DAE1DBF1D0D891E890C5F26
:101D50001F4F1E8B0D8B2B8D3C8D4D8D5E8D2BA3C0
:101D60003CA34DA35EA3CF8CD8A0E9A0FAA04F89D5
:101D7000588D2416350669F109891A892B893C8901
:101D80000F8F18A329A33AA32D813E814F81588537
:101D9000298B3A8B4B8B5C8B4D855E856F85788963
:101DA0004D835E836F83788749845A846B847C84F7
:101DB0004B8E5C8E6D8E7E8E69807A808B809C804F
:101DC00069867A868B869C8689839A83AB83BC835B
:101DD000C4CE64E173E07E8B6D8B22242394312C7E
:101DE000F101EF70FF273896EE0FFF1FEE0FFF1F78
:101DF0002D96EEACFFAC2D97EE0DFF1D02811381E9
:101E000024813581F1013D96EF70FF273896EE0F62
:101E1000FF1FEE0FFF1FEE0DFF1DC280D380E48079
:101E2000F5804FE0420DE42FEF70B601A7013A01B3
:101E30004B0160FA979487947794679497F82B9660
:101E40006CAE7DAE8EAE9FAE2B972D966EAD7FADF8
:101E50002D9744E0E49F600D711D1124FB01B096A5
:101E6000F88FEF8BF1013896EF70FF273896EE0F61
:101E7000FF1FEE0FFF1F2D964EAD5FAD2D974E0F3E
:101E80005F1FEF89F88D4280538064807580FA016E
:101E900082809380A480B580840C951CA61CB71CFE
:101EA000702E412E522E632EB301A201440F551FF6
:101EB000661F771F411D28013901E3E0769467947E
:101EC00057944794EA95D1F74426552666267726F7
:101ED000B80189019B0100FB379527951795079558
:101EE00037F900FB379527951795079537F9402661
:101EF000512662267326480C591C6A1C7B1CFAE08A
:101F0000F694E794D794C794FA95D1F72B968CACB6
:101F10009DACAEACBFAC2B97C824D924EA24FB24DB
:101F200080FAB794A79497948794B7F880FAB794F7
:101F3000A79497948794B7F88C249D24AE24BF244B
:101F4000840C951CA61CB71CEF89F88D82829382A5
:101F5000A482B5826D897E89FB014590559065907C
:101F600074904F8A588E698E7A8E0D851E852F85C6
:101F70003889F22F232F302F012F1F2F4D855E859B
:101F80006F857889409550956095709549885A88F5
:101F90006B887C8844215521662177214D805E80A5
:101FA0006F807884CD84DE84EF84F8884C205D20B7
:101FB0006E207F206A017B01C424D524E624F72407
:101FC0004F89588D698D7A8DC40ED51EE61EF71E79
:101FD00028013901440C551C661C771C411C440C1B
:101FE000551C661C771C411C4D855E856F85788964
:101FF000E42F472F762F652F5E2F40FB779567954F
:102000005795479577F94425552566257725280165
:10201000390140FA779467945794479477F840FAD7
:10202000779467945794479477F840FA7794679435
:102030005794479477F844255525662577254C0D08
:102040005D1D6E1D7F1D840E951EA61EB71E4F8C36
:1020500058A069A07AA0840C951CA61CB71CD82E89
:10206000E92EFA2ECB2ECC0CDD1CEE1CFF1CC11C65
:1020700097018601000F111F221F331F011DAC01A4
:10208000BD0140FB779567955795479577F940FBDC
:10209000779567955795479577F968017901C42633
:1020A000D526E626F726BC01AD01440F551F661F55
:1020B000771F411D440F551F661F771F411D8A0161
:1020C0009B01000F111F221F331F011DB701A60125
:1020D0004027512762277327C984DA84EB84FC8464
:1020E00009811A812B813C81C026D126E226F32664
:1020F000C822D922EA22FB2209851A852B853C8534
:1021000049805A806B807C8004211521262137214B
:102110000C251D252E253F25400F511F621F731FC3
:102120004B8C5C8C6D8C7E8C480C591C6A1C7B1C07
:10213000480D591D6A1D7B1D0FEF201A300A2D898D
:102140003E892C5F3F4F3E8B2D8B89849A84AB84D4
:10215000BC848B8E9C8EAD8EBE8EA988BA88CB88AF
:10216000DC88AF8EB8A2C9A2DAA201E3201631043E
:1021700019F18D809E80AF80B884898A9A8AAB8A53
:10218000BC8AAD84BE84CF84D888AD82BE82CF8223
:10219000D8864D865E866F86788AC980DA80EB8025
:1021A000FC80C986DA86EB86FC8689839A83AB83BA
:1021B000BC83DB01CA0114CE8FA098A4A9A4BAA441
:1021C000480D591D6A1D7B1D2D96EEADFFAD2D9757
:1021D00042835383648375838BA49CA4ADA4BEA463
:1021E000880D991DAA1DBB1D86839783A087B18783
:1021F00089819A81AB81BC818FA498A8A9A8BAA82B
:10220000880D991DAA1DBB1D82879387A487B5875A
:1022100089859A85AB85BC858BA89CA8ADA8BEA8EE
:10222000880D991DAA1DBB1D86879787A08BB18B32
:102230008FA898ACA9ACBAAC480C591C6A1C7B1C82
:10224000428A538A648A758A8D859E85AF85B8894E
:102250004BAC5CAC6DAC7EAC840D951DA61DB71D62
:10226000868B978BA08FB18F8D819E81AF81B88532
:1022700023964CAC5DAC6EAC7FAC2397840D951D62
:10228000A61DB71D828F938FA48FB58F89899A89D8
:10229000AB89BC8927964CAC5DAC6EAC7FAC279704
:1022A000840D951DA61DB71D868F978FA0A3B1A382
:1022B000C45BDF4F0FB6F894DEBF0FBECDBFDF911A
:1022C000CF911F910F91FF90EF90DF90CF90BF9033
:1022D000AF909F908F907F906F905F904F903F90C6
:1022E0002F900895FC0187E696EEA9E0BAE6828376
:1022F0009383A483B58385E89EEAA7E6BBEB868338
:102300009783A087B18782E793EFAEE6BCE382872D
:102310009387A487B5878AE395EFAFE4B5EA86870C
:102320009787A08BB18B8FE792E5AEE0B1E5828B0A
:10233000938BA48BB58B8CE898E6A5E0BBE9868BE4
:10234000978BA08FB18F8BEA99EDA3E8BFE1828FC5
:10235000938FA48FB58F89E19DECA0EEBBE5868FAE
:10236000978FA0A3B1A3DF01A659BF4F1C92EE59CE
:10237000FF4F1082118212821382148215821682FC
:102380001782089580E490E0089580E290E0089537
:10239000982F97709F5F21E030E001C0220F9A953F
:1023A000EAF7215098E0299F90011124822708958F
:1023B000CF93DF93EC0180911201882331F083E009
:1023C0000E94791F1816190634F081E090E09B8373
:1023D0008A8380E090E0DF91CF91089583E00E94AE
:1023E000681F90E008950F931F93CF93DF931F9280
:1023F000CDB7DEB78C01FC018485958597FF0EC0B3
:10240000CE0101960E945A20019719F4298130E0EB
:1024100002C02FEF3FEFF80135872487F80184854C
:1024200095850F90DF91CF911F910F910895CF93D4
:10243000DF931F92CDB7DEB7FC018485958597FDAC
:1024400005C02FEF3FEF358724870BC0CE010196E3
:102450000E945A20019719F4898190E002C08FEF01
:102460009FEF0F90DF91CF9108956F927F928F929F
:102470009F92AF92BF92CF92DF92EF92FF920F9313
:102480001F93CF93DF934C013B01EA019A0140E097
:1024900050E060E070E080E090E003E00E94F731FF
:1024A000F401EE59FF4FA080B180C280D380E48058
:1024B000F580068117810E942E322083318342836A
:1024C00053836483758386839783840106591F4FE2
:1024D00080E4A82E740122E2E20EF11C209721F183
:1024E000F8018081BA2CB81A2B2D30E0C217D3071F
:1024F00008F4BC2ECB2CD12CA601B3019701280FD8
:10250000311DC9010E948A33F80180818B0D8083BF
:10251000CC19DD096C0C7D1C803401F7C4010E94CC
:10252000DE0CF8011082DACFDF91CF911F910F916D
:10253000FF90EF90DF90CF90BF90AF909F908F90E3
:102540007F906F9008954F925F926F927F928F92DB
:102550009F92AF92BF92CF92DF92EF92FF920F9332
:102560001F93CF93DF93EC016B01942EA52E7C017A
:1025700082E2E80EF11CFE01E659FF4F2081822F16
:1025800090E08E010E591F4FD701A80FB91F2833B5
:1025900008F06BC020E82C93808190E047E350E086
:1025A000481B590B019660E070E08E0D9F1D0E9444
:1025B0009333D8018C901196BC9011971296FC9190
:1025C00012971396EC91139714966C911497159695
:1025D0007C911597282D3B2D4F2F5E2F16968C91B1
:1025E000169717969C9100E20E941232C901DA01F7
:1025F000AE01465A5F4F782E6624552444240B2F93
:102600001127222733270429152926293729492E5E
:102610005A2E6B2E77244424662477240429152906
:1026200026293729BA2FA92F982F88278827992755
:10263000BB27082B192B2A2B3B2BDA010D931D935B
:102640002D933C931397682D7B2D8F2F9E2F0E94E7
:10265000F031FE01E25AFF4F6083718382839383DE
:10266000CE010E94DE0C229618C020E82C938081B7
:1026700090E04FE350E0481B590B019660E070E09A
:102680008E0D9F1D0E949333CE010E94DE0C88E3C5
:10269000F70111928A95E9F78CCF69917991899127
:1026A00099910E94F0316C8F7D8F8E8F9F8FCE1508
:1026B000DF0599F7492D5A2D4132510510F040E2BE
:1026C00050E0B701C601DF91CF911F910F91FF90AC
:1026D000EF90DF90CF90BF90AF909F908F907F90C2
:1026E0006F905F904F900C948A338F929F92AF922D
:1026F000BF92CF92DF92EF92FF920F93CF93DF932F
:1027000000D0CDB7DEB74C017B01BA016901DC0115
:10271000ED91FC910680F781E02D49837A8309953C
:102720005C01D401ED91FC910084F185E02DC401A0
:10273000099569817A81AC14BD0428F0A601C7010E
:102740000E948A3324C0D401ED91FC910284F38568
:10275000E02DA601C4010995D401ED91FC910480FE
:10276000F581E02DC40109956C01D401ED91FC9136
:102770000484F585E02DAC01B701C4010995D401AD
:10278000ED91FC910084F185E02DC401099547018C
:102790008C0C9D1CA5014C195D09602F70E0C401D3
:1027A0000E949333F701E815F90521F090819027F5
:1027B0009193F9CF0F900F90DF91CF910F91FF90F0
:1027C000EF90DF90CF90BF90AF909F908F90089543
:1027D0000F93CF93DF93EC019A01829606E3AB014E
:1027E000BC01CE010E947513FE01EE59FF4F2081FE
:1027F00031814281538164817581868197813E5FF9
:102800004F4F5F4F6F4F7F4F8F4F9F4F20833183CD
:10281000428353836483758386839783CE01DF91DC
:10282000CF910F910C94DE0C80917E0481110DC02C
:1028300082E080937A0484E080937B0410927D048C
:1028400010927C0481E080937E048AE794E00895EE
:10285000CF93DF9390E0FC01E05FFB4F2491FC01FC
:10286000E051FC4F8491882361F190E0880F991F1B
:10287000FC01EE51FC4FC591D491FC01EC52FC4F90
:10288000A591B491611109C09FB7F89488812095F2
:1028900082238883EC912E230BC0623061F49FB7B2
:1028A000F8943881822F809583238883EC912E2B96
:1028B0002C939FBF06C08FB7F894E8812E2B2883F6
:1028C0008FBFDF91CF9108958F929F92AF92BF9269
:1028D000CF92DF92EF92FF926B017C010E94B90CC4
:1028E0004B015C01C114D104E104F104F1F00E9438
:1028F000B90CDC01CB0188199909AA09BB09883EEA
:102900009340A105B10570F321E0C21AD108E10896
:10291000F10888EE880E83E0981EA11CB11CC1143A
:10292000D104E104F10419F7DDCFFF90EF90DF90BF
:10293000CF90BF90AF909F908F9008952FB7F8944D
:102940006091720470917304809174049091750485
:102950002FBF08951F920F920FB60F9211242F933D
:102960003F938F939F93AF93BF9380917204909105
:102970007304A0917404B09175043091710423E044
:10298000230F2D3720F40196A11DB11D05C026E8A7
:10299000230F0296A11DB11D209371048093720430
:1029A00090937304A0937404B0937504809176049B
:1029B00090917704A0917804B09179040196A11DBB
:1029C000B11D8093760490937704A0937804B0931C
:1029D0007904BF91AF919F918F913F912F910F906B
:1029E0000FBE0F901F9018951F920F920FB60F9267
:1029F00011242F934F935F936F937F938F939F93A4
:102A0000AF93BF932091840080916D0490916E04E8
:102A1000A0916F04B0917004820F911DA11DB11D92
:102A200080936D0490936E04A0936F04B093700430
:102A300080916D0490916E04A0916F04B091700428
:102A400040916D0450916E0460916F047091700418
:102A50002AE0880F991FAA1FBB1F2A95D1F7840F60
:102A6000951FA61FB71F80936D0490936E04A093CB
:102A70006F04B093700480916D0490916E04A091E6
:102A80006F04B091700440916D0450916E04609198
:102A90006F047091700426E0B695A7959795879579
:102AA0002A95D1F784279527A627B72780936D0409
:102AB00090936E04A0936F04B093700480916C04A3
:102AC0008F5F80936C04BF91AF919F918F917F91A5
:102AD0006F915F914F912F910F900FBE0F901F90AC
:102AE0001895680F791F8617970721F0FC0110824F
:102AF0000196F9CF08956F927F928F929F92AF9235
:102B0000BF92CF92DF92EF92FF920F931F93CF93DA
:102B1000DF93CDB7DEB7A0970FB6F894DEBF0FBE38
:102B2000CDBF7C014B013A0169015801DC01ED91F7
:102B3000FC910484F585E02D40E250E0BE016F5F1A
:102B40007F4F0995B7016E5D7F4F0CE59301A4019E
:102B5000C7010E947513F701EE59FF4F20813181A3
:102B60004281538164817581868197813E5F4F4F99
:102B70005F4F6F4F7F4F8F4F9F4F20833183428333
:102B800053836483758386839783C7010E94DE0C19
:102B9000D701ED91FC910284F385E02D40E250E0F5
:102BA000BE016F5F7F4FC7010995D701ED91FC9181
:102BB0000484F585E02DA501B601C701099560E201
:102BC00070E0CE0101960E947115A0960FB6F894A0
:102BD000DEBF0FBECDBFDF91CF911F910F91FF9050
:102BE000EF90DF90CF90BF90AF909F908F907F90AD
:102BF0006F900895CF93DF93EC0169E670E0029641
:102C00000E947115E881F9810084F185E02DCE01E3
:102C1000DF91CF9109942DE532E0FC0121933193AE
:102C2000CF0169E670E00C947115CF93DF93EC014E
:102C30000E940B16CE01DF91CF910C94E03280916F
:102C40003D03882309F479C085E78093E9048091E6
:102C5000A4029091A5029093EA048093EB048091E2
:102C6000A6029091A7029093EC048093ED048091CA
:102C7000A8029091A9029093EE048093EF048091B2
:102C8000AA029091AB029093F0048093F10480919A
:102C9000AE029091AF029093F2048093F30480917E
:102CA000B0029091B1029093F4048093F504809166
:102CB000AC029091AD029093F6048093F70480915A
:102CC000B2028093F8048091A3028093F90480916A
:102CD000A2028093FA048091A1028093FB04809168
:102CE00099028093FC04809197028093FD04809167
:102CF0009502909196029093FE048093FF04809138
:102D00009F0280588093000580919D028058809397
:102D1000010580919B028093020580919C02809323
:102D2000030580913E03823040F020E030E04BE12B
:102D300067E48091B3020C94382080E0089580917C
:102D40003D03882361F080913E03823040F020E013
:102D500030E040E064E48091B3020C9438200895A0
:102D600080913D03882361F080913E03823040F0E2
:102D700020E030E040E063E48091B3020C9438201E
:102D8000089580913D03882391F080913E03813026
:102D900031F420E030E043E060E480E406C022E368
:102DA00030E040E060E48091B3020C943820089554
:102DB0001F93CF93DF93C09149031091E4028C2FAE
:102DC0000E94C811811108C031E020E0C11101C08A
:102DD00030E0832F922F02C081E090E0412F4F70AE
:102DE000242F30E0BC0102C0660F771F4A95E2F73E
:102DF0003195219531092F703327EC0102C0D6950A
:102E0000C7952A95E2F7C62BD72B8C2F81500E94AD
:102E1000C811C80FD11D12951F70812F90E09E011F
:102E200002C0220F331F1A95E2F7919581959109FF
:102E30008F70992702C0D695C7958A95E2F7C22B65
:102E4000D32B8C2F0E94C81170E4879FC00DD11D19
:102E500011241091E2028091E1020E94C81191E0D8
:102E6000910F8127890F9D2F982790936B04809550
:102E7000C827C0936A04DF91CF911F910895809174
:102E8000F402811107C08091ED02811106C082E039
:102E900090E0089580E090E0089581E090E008954A
:102EA0009091F40291110AC08093EF026093EE02B8
:102EB00081E08093F4021092ED02089580E008957D
:102EC0001092DA021092B40484E08093AD04109260
:102ED000E0021092DF021092D90208958091DA0286
:102EE000811103C08091D90202C081E090E081701D
:102EF0000895089580E090E00895DC01FB011296AA
:102F00008C91129790E02481358182179307D1F438
:102F100091818081813A31F481E0913091F0933058
:102F200089F411C0813271F49B3021F482811F96A3
:102F30008C9305C09A3031F4828150968C9381E055
:102F40000895089580E00895DC01FB0188E4808302
:102F500089E4818384E482831D969C911D979F70F0
:102F60009F5B93831D968D919C911E9724E096956F
:102F700087952A95E1F78F708F5B848385E00895AC
:102F8000FC0182818F5BFB01808381E00895FC015D
:102F9000218530E0F901E25CFB4F8491F901E05FAB
:102FA000FB4F4491F901E051FC4F2491222309F495
:102FB0004AC08823E1F190E0FC013197EF30F10540
:102FC000B0F5EB5AFE4F0C94EA31809180008F7778
:102FD00007C0809180008F7D03C080918000877F33
:102FE0008093800024C084B58F7702C084B58F7D24
:102FF00084BD1DC0809190008F7707C080919000A4
:103000008F7D03C080919000877F809390000FC0D8
:103010008091C0008F7703C08091C0008F7D809326
:10302000C00005C08091C200877F8093C200E22F5C
:10303000F0E0EE0FFF1FE05DFB4FA591B491EC9126
:103040004E2381E009F480E081700895EF92FF92B1
:103050000F931F93CF93DF93FB012081213851F50C
:103060002381223239F5DC0112962C9130E0448123
:10307000558142175307F1F4EC010B851C85E12CB7
:10308000F12C0115110591F0F801448155816281FF
:10309000738180E80E94DF1C8F3FFFEF9F0769F07C
:1030A000E80EF91ED8010D911C91EBCF81E08F87BE
:1030B000C70105C080E090E002C08FEF9FEFDF9175
:1030C000CF911F910F91FF90EF900895CF93DF93D1
:1030D000CDB7DEB769970FB6F894DEBF0FBECDBF90
:1030E000FC01DB018C918F5F8C93BE016F5F7F4F82
:1030F00089E1DB011D928A95E9F729E0298384E0C3
:103100008A8391E09D8383E08E832A8721E22B8747
:103110009C879D879F8722E2288B27E02B8B25E0C9
:103120002C8B8E8B20E430E0388F2F8B998F82810F
:103130008B8395858685998B8A8B838180688D8B1F
:1031400049E150E080E00E94DF1C69960FB6F894D8
:10315000DEBF0FBECDBFDF91CF910895862F642FC4
:103160000C9428148091AD048430E1F48091B4046F
:103170008823C1F0E82FF0E0EB54FB4F9091B304AB
:1031800090838F5F8093DE0285EB94E09093DD0265
:103190008093DC021092DB021092E00281E08093C7
:1031A000DA02089580E008959091AD049430C9F456
:1031B0009091B4049632A8F4E92FF0E0EB54FB4F61
:1031C00080839F5F9093B4049091B7049F5F909326
:1031D000B7049091B3049F5F890F8093B30481E09B
:1031E000089580E008959091AD04943071F4909129
:1031F000B404903250F4E92FF0E0E754FD4F80839F
:103200009F5F9093B40481E0089580E00895209139
:10321000B1043091B204232B51F49091B602911174
:1032200006C08093B50281E08093B602089580E0E5
:1032300008951092B2041092B1041092B50280E287
:103240008093B8001092B900ECEBF0E080818464C8
:1032500080838081806480831092B8021092A904D8
:103260001092B7021092B6020895AF92BF92CF9219
:10327000DF92EF92FF920F931F93CF93DF931F92F2
:10328000CDB7DEB77C0169836A01590141E050E0A6
:10329000BE016F5F7F4FFC0183810E94791F8C010B
:1032A00097FD0BC0F7018381A501B60180640E94E0
:1032B000791F97FD02C0800F911F0F90DF91CF9172
:1032C0001F910F91FF90EF90DF90CF90BF90AF9044
:1032D000089580919B0481116BC081E080938E04DE
:1032E00080938F0424E934E0309391042093900478
:1032F00010929304109292042BE132E030938B04ED
:1033000020938A04109296041092950410929804C7
:10331000109297048093990480939A0481EC80938F
:1033200094040E941414FC01218180918E0490E089
:10333000820F911D089724F081E080939B0438C090
:10334000A281B381109729F48AE894E09383828361
:103350000EC018968D919C911997009711F0DC0181
:10336000F8CF8AE894E019969C938E931897808101
:1033700080938C04818180938D04908180918F044F
:10338000890F808380E090918E048917A8F6A09120
:103390009004B0919104A80FB11D9C91A181B0E05F
:1033A000A050BF4F9C9391819F5F91838F5FEBCF24
:1033B0008AE894E00895CF93DF93DC01683810F039
:1033C000685825C0E62FF0E067FF12C0E058F10909
:1033D00081E090E001C0880FEA95EAF780951496A5
:1033E0009C911497892314968C93149760E00FC0D6
:1033F000E35AFB4F6491662329F167FF08C01496D6
:103400008C9114978D7F14968C9314976F77FD0190
:10341000369686E0662321F09081961301C01082D3
:10342000815031968111F6CFED010E946919AE01EC
:103430004C5F5F4F28E030E062E00E94351981E088
:1034400090E002C080E090E0DF91CF910895CF93AB
:10345000DF93DC01683810F068582DC0E62FF0E0EB
:1034600067FF11C0E058F10981E090E001C0880FCA
:10347000EA95EAF714969C911497892B14968C93ED
:10348000149760E018C0E35AFB4F6491611109C0C2
:1034900081E090E013969C938E93129780E090E0E9
:1034A00046C067FF08C014968C91149782601496EA
:1034B0008C9314976F7716968C911697861751F107
:1034C00017968C911797861729F118968C91189753
:1034D000861701F119968C9119978617D9F01A96CB
:1034E0008C911A978617B1F01B968C911B978617B3
:1034F00089F0FD01369680E090E02191211105C010
:10350000FD01E80FF91F668305C00196863091051D
:10351000A1F7BECFED010E946919AE014C5F5F4F6C
:1035200028E030E062E00E94351981E090E0DF9110
:10353000CF910895EF92FF921F93CF93DF93EC0109
:10354000162F0E94271A7C01612FCE010E94DB19E1
:10355000C7019927DF91CF911F91FF90EF900895B8
:10356000FC01808580FD04C082FB882780F90895D6
:1035700080E00895AF92BF92CF92DF92FF920F93B7
:103580001F93CF93DF93EC0188858B7F8887E88139
:10359000F9810190F081E02DCE010995F82E9885F2
:1035A00096959170891759F00E949E146A837B83C7
:1035B0008C839D83988582E0892788872AC00E9412
:1035C0009E140A811B812C813D815B016C01A01A34
:1035D000B10AC20AD30A4E815F8160E070E0A4168E
:1035E000B506C606D706A8F098859170F91689F039
:1035F0000E949E146A837B838C839D83988581E0DF
:103600008927846088870E949E146A877B878C87BD
:103610009D87888582FB882780F9DF91CF911F9154
:103620000F91FF90DF90CF90BF90AF900895809161
:1036300029039091280391118C5F90912703911198
:103640008E5F282F30E04091880450918904241720
:10365000350759F0309389042093880480936605D8
:103660008091730581110C94132008959C012D5FA6
:1036700031092330310568F48F3F910579F021E05D
:103680008E3F910519F42093380315C0209337031A
:1036900012C08B3F910531F41092260321E0209354
:1036A000390309C08A3F910531F410922503109225
:1036B0003903109237039C01205231092B3B31050D
:1036C00028F4682F8AE595E00C94DB1908958C3F67
:1036D000910539F43091870421E023272093870452
:1036E0000DC08B3F910521F421E02093260306C0F5
:1036F0008A3F910519F421E0209325039C012D5F59
:1037000031092330310578F421E08F3F910519F418
:1037100020933C0308C08E3F910519F420933B038E
:1037200002C020933A039C01205231092B3B310502
:1037300030F4682F8AE595E00E94271A1DC0893F62
:103740009105D1F462E88AE595E00E94271A62E6C5
:103750008AE595E00E94271A62E370E080E090E03D
:103760000E94641462E68AE595E00E94DB1962E833
:103770008AE595E00E94DB1981E080938604089534
:103780000F931F93CF93DF9300D000D0CDB7DEB758
:103790008C0183E192E0F80191838083128213828D
:1037A000148215828AE090E0978386831086618771
:1037B000C80129833A834B835C830E94C717298100
:1037C0003A814B815C81882321F0F80180858360F8
:1037D000808729833A834B835C830E949E14F8017F
:1037E000628373838483958329813A813783268317
:1037F0000F900F900F900F90DF91CF911F910F912D
:1038000008950C9465310C945D314091A50450915C
:10381000A6042091A3043091A40442175307B4F4E2
:103820009091E8009570E1F39091E80092FD19C045
:103830008093F1008091A5049091A60401968F7366
:103840009927892B19F48EEF8093E8008091A504C5
:103850009091A60401969093A6048093A50481E01C
:10386000089580E00895615030F02091F100FC014E
:1038700020830196F8CF289884E68093DC0408958D
:10388000CF92DF92EF92FF920F931F93CF93DF932C
:103890006C017A018B01C0E0D0E0CE15DF0589F024
:1038A000D8016D918D01D601ED91FC910190F081CF
:1038B000E02DC6010995892B11F47E0102C02196E5
:1038C000ECCFC701DF91CF911F910F91FF90EF9047
:1038D000DF90CF9008950E9478331F920F920FB619
:1038E0000F9211248F939F938091E1009091E100BA
:1038F000937F9093E10083FF0FC01092E90091E065
:103900009093EB001092EC0092E39093ED001092F4
:10391000DD0498E09093F00082FF20C093E0909344
:10392000E9009091F200992319F09AE39093E8004E
:103930009091A704992339F09091A7049150909306
:10394000A704992389F19091DC04992339F090918F
:10395000DC0491509093DC04992341F184FF10C062
:103960008091E2008E7E81608093E2008091E10090
:103970008F7E8093E100809193028E7E806111C0E2
:1039800080FF16C08091E2008E7E80618093E2000D
:103990008091E1008E7E8093E100809193028E7E83
:1039A00081608093930204C05D9ACDCF289AD6CFD0
:1039B0009F918F910F900FBE0F901F901895DF92DF
:1039C000EF92FF920F931F93CF93DF93D82E8A012C
:1039D0007B01E40EF51EEB01CE15DF0571F0D7FE7D
:1039E00003C0FE01849101C088810E94051C2196BC
:1039F0008111F2CF8FEF9FEF01C0C801DF91CF910E
:103A00001F910F91FF90EF90DF9008950F931F93F8
:103A1000CF93DF931F92CDB7DEB782E0898342E474
:103A200050E06DED74E080E80E94DF1C0E941414E9
:103A3000DC0112960D911C9113970115110569F087
:103A4000D801ED91FC910280F381E02DBE016F5F02
:103A50007F4FC801099597FF07C089810F90DF91BB
:103A6000CF911F910F910895F80100851185E5CF41
:103A70001F920F920FB60F921124CF92DF92EF9206
:103A8000FF920F931F932F933F934F935F936F93E7
:103A90007F938F939F93AF93BF93EF93FF93CF93B6
:103AA000DF93CDB7DEB76C97DEBFCDBF1092E900D4
:103AB0008091E80083FFEDC168E0CE0145960E9449
:103AC000331C82EF8093E8008D8987FF05C09091B9
:103AD000E80090FFFCCF03C09EEF9093E800982F82
:103AE000907609F0C6C09E892F89188D91110CC05F
:103AF000803829F4809194028093F10002C01092E2
:103B0000F1001092F10048C1422F50E0512B91304A
:103B100051F4811141C14130510509F03DC18091FD
:103B200094028D7F0BC0933061F4811135C1413017
:103B3000510509F031C18091940282608093940212
:103B40002BC1953041F48091E80080FFFCCF2068C4
:103B50002093E30021C1963009F05FC0EB8CFC8C10
:103B60001092E9001092A6041092A504123091F56B
:103B70001092A4041092A3040E94061D99E0BE01B5
:103B80006F5F7F4FDB01E92F1D92EA95E9F799837B
:103B90001A8391E09E8390EA98879AEF9987209103
:103BA000A5043091A604275F3F4F3C832B838D8370
:103BB0001092E9001092A6041092A504F092A404B9
:103BC000E092A30449E050E080E00E94DF1C0E94E4
:103BD000061DE2C0F092A404E092A3040E94141413
:103BE000DC011296ED90FC901397E114F10409F4B6
:103BF000C0C0D701ED91FC910480F581E02DBE019C
:103C00006B5E7F4FC7010995009719F00CF0C4C097
:103C1000C7C0F701E084F184E8CF973009F4C0C051
:103C2000983021F481E08093F100B6C0993009F01A
:103C3000B3C0837009F0B4C0E1E0F1E081E021E0BD
:103C400036E39081992361F08093E9002093EB00A3
:103C500091919093EC003093ED008F5F873089F75E
:103C60008EE78093EA001092EA008F898093DD044A
:103C700093C08B8D9C8D1092E9001092A604109237
:103C8000A5049093A4048093A304898D811156C048
:103C90008E899D89913A59F4813209F081C047E0BB
:103CA00050E06BE071E080E00E94DF1C75C0913253
:103CB00009F076C0833289F4888D90E0982F8827A8
:103CC0002F89822BA0E0B0E0809307019093080138
:103CD000A0930901B0930A015FC0803269F480911A
:103CE000E80082FFFCCF67E08BE091E00E94331C8C
:103CF0008BEF8093E80006C0823209F04DC08F89B7
:103D00008093120180919202882319F0EEEFFAE07D
:103D100002C0E0E0F8E080910B0190910C01A091CD
:103D20000D01B0910E01803B9440A105B10509F051
:103D30007BC08091120180FF93C076C00E94141452
:103D4000DC0112960D911C9113970115110541F19B
:103D5000D801ED91FC910190F081E02DBE016B5EE8
:103D60007F4FC8010995811117C0F80100851185A1
:103D7000ECCF113009F44EC0133091F48F898823B1
:103D800009F445C0823081F440E86EE08DE395E0AF
:103D90000E94832F882321F08EEF8093E80079C062
:103DA00081E28093EB0075C0813029F440E867E040
:103DB00085E395E0EDCF833099F70E941414DC0180
:103DC0001296ED90FC9013978E010F5F1F4F6801C4
:103DD000E114F10479F0D701ED91FC910680F781AF
:103DE000E02DB801C7010995080F111DF701E08406
:103DF000F184EECFD8011C92F60101900020E9F782
:103E00003197BF016C197D0940E0C601C1CF6FE158
:103E100075E002C063E275E06115710509F2FB010E
:103E2000449150E080E840CF0FB6F894A895809177
:103E30006000886180936000109260000FBEA895BA
:103E4000EE3F2AE0F20739F08091FE0A9091FF0AD6
:103E500091838083A1CF1092FF0A1092FE0A9CCF1B
:103E6000EE3F8AE0F80731F0808191819093FF0A5C
:103E70008093FE0A87E797E7918380839BE088E140
:103E80000FB6F894A895809360000FBE90936000E1
:103E900083CF6C960FB6F894DEBF0FBECDBFDF9117
:103EA000CF91FF91EF91BF91AF919F918F917F91B2
:103EB0006F915F914F913F912F911F910F91FF90C3
:103EC000EF90DF90CF900F900FBE0F901F9018953E
:103ED0002FB7F89487708093E9009091E800892FBC
:103EE000807295FF04C09091F20080E4891B2FBF7F
:103EF00008957F928F929F92AF92BF92CF92DF925E
:103F0000EF92FF920F931F93CF93DF93C82E8B01F5
:103F10007A018091DD04811103C08FEF9FEF75C09E
:103F20008091930280FF05C08091E00082608093C1
:103F3000E000CE2DDF2DD12C8AEF882E8C2D8770BE
:103F4000B82E8C2D8072A82E8C2D8074982E9AE31A
:103F5000792E209709F452C08C2D0E94681F282FBB
:103F600081110AC08A948820C1F261E070E080E08B
:103F700090E00E946414EDCF90E0C817D9070CF4CC
:103F80002C2F3FB7F894B092E9008091E80085FFAC
:103F900033C0822F90E0C81BD90BAA2029F02150F2
:103FA000A8F01092F100FBCFF801C7FE07C0215026
:103FB00058F044914093F1003196F9CF215020F010
:103FC00041914093F100FACF080F191FDD2019F03D
:103FD0007092E8000AC08091E80085FD08C07092E8
:103FE000E800DD24D394209739F0D12C05C0209728
:103FF00019F491107092E8003FBFABCFD110ACCF55
:104000005D9884E68093A704C701DF91CF911F914B
:104010000F91FF90EF90DF90CF90BF90AF909F9067
:104020008F907F900895CF93DF9300D000D01F92A0
:10403000CDB7DEB7E6E6F5E08081898391818281A4
:104040009A838B83938184819C838D830E946919D9
:1040500025E030E0AE014F5F5F4F61E00E9435190F
:104060000F900F900F900F900F90DF91CF910895C8
:104070009091090591111CC08093E8046093E704B6
:104080004093E60489EE94E09093E5048093E40481
:104090003093E3042093E20481E0809309051092B9
:1040A000E1041092E0041092DF041092DE040895FF
:1040B00080E00895FC018091DD04811103C08FEF41
:1040C0009FEF08959FB7F89482E08093E9002091D4
:1040D000F20030E01216130614F421E030E021154E
:1040E000310559F0289884E68093DC048091F10032
:1040F00080838091F200882319F09FBFC901089541
:104100008BE68093E800F9CFBC01009791F0FC01A9
:1041100001900020E9F73197AF01481B590BE0915E
:104120000A05F0910B050280F381E02D8AE095E00D
:10413000099480E090E00895CF93C82F0E946E17F5
:10414000811113C09091DB049093B504C093B60421
:104150001092B70483E08093B404C90FC093B304F2
:104160009F5F9093DB0481E001C080E0CF910895D0
:104170008091B1049091B204892BE9F48091AF044D
:104180009091B004892BB9F081E08093AC042DEAC2
:1041900034E03093AB042093AA048093AD041092D2
:1041A000AE049091BC0090649093BC008093A904ED
:1041B0001092A804089580E00895CF93DF931F9292
:1041C000CDB7DEB7789484B5826084BD84B5816054
:1041D00084BD85B5826085BD85B5816085BD8091D2
:1041E0006E00816080936E0010928100809181004A
:1041F0008260809381008091810081608093810042
:104200008091800081608093800080919100826025
:1042100080939100809191008160809391008091C2
:1042200090008160809390008091C10084608093B1
:10423000C1008091C10082608093C1008091C10063
:1042400081608093C1008091C30081608093C3002E
:104250008091C00082608093C0008091C200816024
:104260008093C20080917A00846080937A0080916C
:104270007A00826080937A0080917A0081608093D6
:104280007A0080917A00806880937A001092DD0431
:1042900010929402109293028091D70081608093D3
:1042A000D70080EA8093D80089B5806189BD89B53F
:1042B000826089BD09B400FEFDCF61E070E080E05E
:1042C00090E00E9464148091D8008F7C806180937C
:1042D000D8008091E000807F8093E0008091E10031
:1042E0008E7E8093E1008DE08093E200559A209AC3
:1042F000EEEFFFE7859194918B3F9C4D19F481E09F
:10430000809392021DB8239A61E08DE00E942814E8
:1043100060E085E00E94281460E08FE10E9428148C
:1043200060E08AE00E94281460E087E00E94281480
:1043300060E089E00E94281460E08DE00E9428146B
:1043400060E084E00E94281460E08EE10E9428145E
:1043500060E08CE00E94281460E086E00E9428144F
:104360000E9419191092E8031092E7031092B40406
:1043700084E08093AD041092E0020E9460171092D6
:10438000E9031092FA0283E08093F5031092F90298
:104390001092EF031092F4031092F80210920905A4
:1043A0001092F4021092ED021092F6021092F502B1
:1043B0001092F7021092F2021092F2031092DF04B0
:1043C0001092E3041092E2040E943C031092040451
:1043D00010920F041092110410920D041092100408
:1043E00010920E041092DB031092DA031092D9039C
:1043F0001092D8031092D703109229031092280329
:10440000109227031092D603109217040E949E1454
:10441000609318047093190480931A0490931B04FA
:1044200010921D0410923D031092DC0380E48093EF
:10443000B30288E893E19093A5028093A40282E3FB
:1044400090E09093A7028093A60280E29EE490936E
:10445000A9028093A80284EB90E09093AB02809332
:10446000AA0288E290E09093AF028093AE0289E1C5
:1044700090E09093B1028093B00280E197E2909334
:10448000AD028093AC0284E68093B2021092A30244
:104490001092A2021092A1028CE290E090939A02F4
:1044A0008093990290939802809397028CE494E011
:1044B00090939602809395028CEE9FEF9093A002CA
:1044C00080939F0284E190E090939E0280939D02EE
:1044D00085E080939B0280939C023F9881E08093CB
:1044E000F8020CE010E039E0A32EB12C43E1E42EF9
:1044F000F12C5BE0252E312C65E1462E512C2AE073
:10450000C22ED12CE091B104F091B204E931F10551
:1045100008F0B4C2EA5AFF4F0C94EA318091A90422
:10452000882309F4BAC281E090E09093B2048093AA
:10453000B1041092B6021092A904AFC28091BC00DF
:10454000806A8093BC0082E090E0A3C28091BC00AE
:1045500087FFA3C28091B900887F8830D9F4809109
:10456000BC008F758093BC009091B8028091B50219
:10457000880F911105C09091AC04911101C0816028
:104580008093BB008091BC0080688093BC0083E076
:1045900090E07FC28091BC008F758093BC008091B9
:1045A000BC0080698093BC0081E190E072C2809180
:1045B000BC0087FF72C28091B900887F883119F0F2
:1045C000803441F1A5C18091AC048823E9F01092B8
:1045D000A8048091B802882389F08091DE0380933B
:1045E000BB008091BC0080688093BC008091B702C2
:1045F000882309F44DC086E090E04BC28091E1032E
:10460000882309F4F1C0C2C18091BC008069809305
:10461000BC0004C08091AC04882319F080E190E0D4
:1046200038C21092E3038091B802882389F0809108
:10463000DE038093BB008091BC0080688093BC0047
:104640008091B702882309F452C088E090E021C22B
:104650008091E203882309F4C7C08091BC00806880
:104660008093BC001092B402BAC08091BC0087FF56
:1046700014C28091B900887F883209F044C08091CB
:10468000DD038093BB008091BC0080688093BC00F8
:1046900085E090E0FEC18091BC0087FFFEC1809163
:1046A000B900887F883279F58091DF03882309F487
:1046B0006DC18091E1038093BB008091BC00806854
:1046C0008093BC008DE090E0E4C18091BC0087FF46
:1046D000E4C18091B900887F8832A9F48091DD031C
:1046E0008093BB008091BC0080688093BC0087E011
:1046F00090E0CFC18091BC0087FFCFC18091B9000D
:10470000887F883259F0803309F002C18091BC0063
:1047100080698093BC0084E190E0BBC18091BC00C3
:10472000806A8093BC008FE090E0B3C18091BC00B0
:1047300087FFB3C18091B900887F803139F58091BE
:10474000BC008F758093BC008091B502880F81609A
:104750008093BB008091BC0080688093BC0084E0A3
:1047600090E097C18091BC0087FF97C18091B9000C
:10477000887F803459F48091DF03882301F18EE033
:1047800090E09093B2048093B10483C08091BC0008
:1047900080698093BC0082E190E07BC18091BC0085
:1047A00087FF7BC18091B900887F803539F5809182
:1047B000BB009091E203891710F48093E20380918B
:1047C000E203882389F0813029F48091BC008F7B3B
:1047D0008093BC008091BC0080688093BC00D09224
:1047E000B204C092B10459C18091BC008069809329
:1047F000BC001093B2040093B1044FC18091BC007F
:1048000080698093BC0086E190E043C18091BC0048
:1048100087FF43C18091B900887F8035E9F08835F2
:1048200009F04AC08091BB00E091E403F091E503F8
:1048300080838091BC0080698093BC008091E303F9
:104840008F5F8093E3031093B2040093B104E0916F
:10485000AA04F091AB04B8C08091BB00E091E403DE
:10486000F091E5038193F093E503E093E403209155
:10487000E3032F5F2093E3033091E203832F90E063
:10488000821B9109019741F48091BC008F7B80933A
:10489000BC008091BC000CC08091BC00321308C0E9
:1048A00080698093BC001093B2040093B10413C0DC
:1048B00080688093BC00F1C08091BC008093B402FA
:1048C0008091BC0080698093BC0087E190E0909368
:1048D000B2048093B104E091AA04F091AB048091FA
:1048E000E30372C08091BC0087FFD7C08091B900FC
:1048F000887F883209F44AC0803351F48091BC002B
:1049000080698093BC005092B2044092B104C5C04B
:104910008091BC0080698093BC00F092B204E09268
:10492000B104BBC0E091AF04F091B00480818093EA
:10493000BB008091BC0080688093BC003092B204C0
:104940002092B104AAC08091BC0087FFA6C08091CC
:10495000B900887F883241F0803339F58091A8040E
:104960008F5F8093A80417C08091A8048F5F809305
:10497000A8049091E103891770F48091AF0490919D
:10498000B00401969093B0048093AF04B092B20447
:10499000A092B10482C08091BC0080698093BC0069
:1049A0001093B2040093B10409C08091BC008069E7
:1049B0008093BC00F092B204E092B104E091AA04AA
:1049C000F091AB048091A804818367C08091B90005
:1049D000887FE091AA04F091AB04811104C08AE0C1
:1049E0008093B40223C01092B2041092B10484E008
:1049F000808353C0E091AA04F091AB0485E08083EA
:104A000082E043C0E091AA04F091AB0485E080838A
:104A100083E03BC0E091AA04F091AB0485E0808381
:104A200084E033C0E091AA04F091AB0485E0808378
:104A30002EC0E091AA04F091AB0485E0808386E06B
:104A400024C0E091AA04F091AB0485E0808387E064
:104A50001CC0E091AA04F091AB0485E0808388E05B
:104A600014C0E091AA04F091AB0485E0808389E052
:104A70000CC01092BC000E9419190FC0E091AA044A
:104A8000F091AB0485E080838BE08093B40288E1F1
:104A900090E09093B2048093B104E091E8038E2FEC
:104AA00090E08B30910508F0BFC0FC01E159FF4F49
:104AB0000C94EA318CE20E940719882309F4BFC0E4
:104AC00082E09BC04091DE028091DC029091DD0289
:104AD0002091B1043091B204232B09F0B0C00097AB
:104AE00009F4ADC09093B0048093AF044093E10308
:104AF00083E083C02091E6038091B1049091B204D9
:104B0000892B09F09CC081E08093DF031092B702EB
:104B10008093B8022093DE0384E06FC00E94B82027
:104B2000882309F48CC085E068C08091AD0484308E
:104B300061F0853009F083C08091DB028F5F809344
:104B4000DB02843010F08BE058C09091AE0480916D
:104B5000DE02891B8093DE028823A9F08091AE04D7
:104B60009091E603890F8093E6032091AE04809133
:104B7000DC029091DD02820F911D9093DD02809303
:104B8000DC0281E03AC081E08093E0021092E80309
:104B900056C08CE20E940719882309F450C081E0B6
:104BA0008093E00387E029C08091B1049091B20422
:104BB000892B09F044C080EE93E09093B004809379
:104BC000AF0481E08093E10388E017C08091B104D5
:104BD0009091B204892B99F581E08093DF031092C4
:104BE000B7028093B8028FEF8093DE0389E005C09F
:104BF0000E94B820882319F18AE08093E8031FC03F
:104C00008091AD04843051F08530C9F48091DB028D
:104C10008F5F8093DB02843008F095CF8091AE04E3
:104C20008111B1CF86E0E9CF1092E8031092E7033B
:104C30001092B40484E08093AD041092E002E091FD
:104C4000DA028E2F90E08D30910508F0FDC0FC0156
:104C5000E658FF4F0C94EA318091D902882309F479
:104C6000F5C08091E002882321F087E08093DA028A
:104C700002C01092ED031092D902E8C087E30E94AF
:104C80000719882309F4E2C082E0D1C04091DE0216
:104C90008091DC029091DD022091B1043091B20448
:104CA000232B09F0D3C0009709F4D0C09093B0042F
:104CB0008093AF044093E10383E0B9C08091B104D5
:104CC0009091B204892B09F0C1C01092B80284E01F
:104CD000AEC00E94B820882309F4B8C085E0A7C000
:104CE0008091AD04843061F0853009F0AFC08091CF
:104CF000DB028F5F8093DB02843010F08CE097C082
:104D00009091AE048091DE02891B8093DE0288239D
:104D100071F02091AE048091DC029091DD02820F4F
:104D2000911D9093DD028093DC0281E080C081E0E0
:104D30008093E00284C087E30E940719882309F466
:104D400085C088E074C04091EC038091EA039091A3
:104D5000EB032091B1043091B204232B09F076C00B
:104D6000009709F473C09093E5038093E4034093A4
:104D7000E20389E05CC08091B1049091B204892B78
:104D800009F064C01092B8028AE051C08091B10469
:104D90009091B204892B09F059C08091E40390915D
:104DA000E503892B09F452C01092AC048DEA94E01B
:104DB0009093AB048093AA0491E09093AD04109279
:104DC000AE048091BC0080648093BC009093A904E1
:104DD0001092E3038BE02BC08091AD04843041F04E
:104DE0008530A1F58CE08093DA021092ED032EC09D
:104DF0008091EC039091AE049817E0F49091AE048A
:104E0000911103C01092DF0218C09091AE04891B6B
:104E10008093EC032091AE048091EA039091EB0320
:104E2000820F911D9093EB038093EA0387E08093B8
:104E3000DA020CC081E08093DF021092ED03109241
:104E4000DA0204C00E9460170E9460172091FA02E3
:104E5000223009F4D0C030F4222359F0213009F473
:104E6000A8C0FAC0253009F4DEC0263009F4E9C034
:104E7000F3C08091E90381116CC08091E803811136
:104E8000EBC01092E7031092B40484E20E94F3187E
:104E9000882309F4E1C084E00E94F31882E10E94B3
:104EA000F31885E20E94F31883EB0E94F3188BE05D
:104EB0000E94F3188BE90E94F31880E20E94F31815
:104EC00083E00E94F31880E00E94F31880E00E94C3
:104ED000F31880E00E94F31881E00E94F31882E347
:104EE0000E94F31881E00E94F31882E30E94F318F5
:104EF00082E30E94F31880E00E94F31880E00E9491
:104F0000F31884E00E94F31880E00E94F31880E018
:104F10000E94F3188BE40E94F31880E00E94F318BB
:104F200083E50E94F31880E00E94F31882E40E9457
:104F3000F31880E00E94F31880E20E94F31880E0EA
:104F40000E94F31880E00E94F31880E00E94F3189A
:104F500017C08730B8F49091E80391117DC0829515
:104F6000880F807E8093E7031092B40490E2892E2C
:104F7000912C80E00E94F31891E0891A9108C9F7FA
:104F800081E068C0873009F045C08091E803811155
:104F900063C080EE8093E7031092B4048FE1882E03
:104FA000912C80E00E94F31821E0821A9108C9F741
:104FB000E7CF8091AD04843009F04EC08091B404F5
:104FC000882309F449C02F9A2F988091B4048093C4
:104FD000DE028091E7038093E60389EB92E09093F1
:104FE000DD028093DC021092DB021092E00220933B
:104FF000E80382E02FC08091E80381112DC08091E9
:10500000E002882349F18091E903873031F485E09B
:105010008093FA021092E9031FC08F5F8093E90327
:105020001092FA0219C08091AD048430A9F48091E5
:10503000B404882389F01092E00286E08093E803AC
:1050400009C08091E803811107C08091E0028823A4
:1050500019F083E08093FA0280911604E091F9023E
:10506000882359F0109216049091F503992329F0A2
:10507000E13019F491509093F5038E2F90E089312F
:10508000910508F0C8C2FC01E957FF4F0C94EA31C2
:105090008091FA02833009F0BEC281E0BAC28091E9
:1050A000F5038111B8C2B4C28091F8029091F40363
:1050B000891739F0882311F083E001C084E08093E0
:1050C000F90280910905882329F087E08093F9028D
:1050D00081E011C08091F602882329F08DE0809351
:1050E000F90282E008C08091F502882339F08EE051
:1050F0008093F90283E08093F7028DC28091F402DD
:10510000882331F01092F30384E08093F7024BC1BF
:105110008091F302882331F01092F30389E08093A9
:10512000F70299C18091F202882329F08FE08093E1
:10513000F70282E16EC28091F203882349F18091E7
:10514000E2049091E304892B19F10E949E1480904F
:10515000F0039090F103681979098091E20490912D
:10516000E30468177907A0F08091EF038093F102C0
:105170000E949E1468196093F00281E08093DE041F
:105180001092F2031092E3041092E2041092EF03E3
:105190002091EF03223009F44BC028F4222359F068
:1051A0002130F1F038C2243089F108F450C02530A4
:1051B00009F45CC030C28091F203882309F42BC249
:1051C0008091E2049091E304892B09F424C264E005
:1051D00080E00E945017882309F41DC281E03FC07F
:1051E00029830E943F17298181309105E9F480913C
:1051F0003F0381FF45C090914203983008F040C0C2
:105200002093DF0482FF0CC082E029C00E943F1778
:105210008130910539F581E08093E10480913F036D
:1052200083FF2CC083E01BC0029709F0F4C128C0A3
:105230008091420399E0899F802D112469E0825F6B
:105240000E945017882309F4E6C184E008C061E495
:1052500086E50E945017882309F4DDC185E080931C
:10526000EF03D9C1029709F0D6C1CECF0E943F17F4
:105270008130910541F481E08093E0041092F203C3
:105280001092EF03C8C1029709F0C5C1CBCF8AE0E5
:105290000E949C20882309F4BEC185E0BAC189E040
:1052A000F7CF8091DB048093EE038BE00E949C207B
:1052B000882309F4B0C18FE00BC08091DB04809398
:1052C000EE038BE00E949C20882309F4A4C180E1B6
:1052D0008093F9021092F3039EC19090EF028090A8
:1052E000EE020E946E17811196C18091AD04843048
:1052F00009F091C18092EC03892D90E0815C9C4F74
:105300009093EB038093EA039091DB049093B504B0
:1053100082E08093B60421E02093B7049092B80411
:10532000892D890F8D5F8093B9049F5F9093DB0473
:1053300085E08093DE0285EB94E09093DD0280931C
:10534000DC021092DB021092E0022093DA0220933A
:10535000D9021092DF022093ED0386E15AC18CE05E
:105360000E949C20882309F456C183E152C1809198
:10537000ED03811150C18091DF02882331F010923A
:10538000F40281E08093ED0255C08091F3038F5FBA
:105390008093F303833039F41092F40282E0809317
:1053A000F90287E0A8CE85E134C10E946E17811111
:1053B00032C12091AD04243009F02DC136E0309384
:1053C000EC0387EE92E09093EB038093EA038091E5
:1053D000DB048093B5043093B6041092B70496E0D2
:1053E000980F9093B8048F5F8093DB042093DE02C4
:1053F00085EB94E09093DD028093DC021092DB0257
:105400001092E00281E08093DA028093D902109238
:10541000DF028093ED0388E1FCC08091ED038111F0
:10542000FAC08091DF02882341F01092F30281E0FC
:105430008093E6021092F702EBC08091F3038F5F36
:105440008093F303833039F41092F30282E0809367
:10545000F9028CE050CE87E1DCC00E94B2188823AC
:1054600009F4D9C086E0D5C08091F303813061F0A2
:1054700018F0833091F0CFC081E00E94D4188823C7
:1054800009F4C9C081E029C08091E4020E94D418C7
:10549000882309F4C0C083E020C00E94B21888238A
:1054A00009F4B9C081E18093F90284E016C08091CB
:1054B000F303813031F018F0833031F0ACC082E07A
:1054C000DCCF8091E202E2CF0E94B218882309F477
:1054D000A2C081E18093F90285E08093F3039BC031
:1054E0000E94B218882309F496C084E192C00E94F9
:1054F0006E17811190C08091E002882309F488C062
:105500008091F8028093F40383C00E946E1781118A
:1055100082C01092F2027CC00E946E1781117BC083
:1055200089E08093F7028091E002882309F470C03B
:105530001092F7028091F303843019F41092F6026E
:1055400004C0853011F41092F5028091EE0380932F
:10555000E1025EC083E00E949C20882309F45BC0C6
:1055600088E057C08091E8040E94D418882309F489
:1055700052C089E04EC08091E7040E94D41888236D
:1055800009F449C08091E604882311F08AE041C003
:105590008BE03FC0E091E404F091E50480810E943B
:1055A000D4188823C1F18091E60481508093E604E9
:1055B000882371F38091E4049091E504019690931F
:1055C000E5048093E40427C00E94B218882319F1EF
:1055D0008CE01FC08AE08093F7020E946E17811151
:1055E0001AC08091E002882389F01092F70280911E
:1055F000E2049091E304892B49F00E949E14709379
:10560000F1036093F00381E08093F20310920905A7
:1056100082E08093F9020E94FC038091FA028330B9
:1056200009F049C310923C0310923B0310923A03D5
:105630001092390310923803109237031092140419
:10564000109213041092120488EC95E00E94BA1A8A
:10565000882389F188EC95E00E94B01A882351F0E4
:1056600081E08093110490913603992329F080936F
:10567000140402C01092110480911104882349F08F
:1056800080912C03811177C3809121039091220393
:1056900079C380912103909122030E94361B80914F
:1056A000FF03882341F01092FF0380911F03909124
:1056B00020030E94361B8CEA95E00E94BA1A8823C8
:1056C00089F18CEA95E00E94B01A882351F081E0BC
:1056D0008093100490913503992329F0809314044A
:1056E00002C01092100480911004882349F0809128
:1056F0002C0381114AC380911D0390911E034CC35A
:1057000080911D0390911E030E94361B8091FE0321
:10571000882341F01092FE0380911B0390911C039B
:105720000E94361B86ED95E00E94BA1A882389F103
:1057300086ED95E00E94B01A882351F081E08093B5
:105740000F0490913403992329F08093140402C02C
:1057500010920F0480910F04882349F080912C034C
:1057600081111DC38091190390911A031FC3809169
:10577000190390911A030E94361B8091FD03882320
:1057800041F01092FD0380911703909118030E943D
:10579000361B84EE95E00E94BA1A882341F180916D
:1057A000EC058570853009F004C381E080930E0418
:1057B00090913303992329F090913203992309F4AE
:1057C00003C380910E04811102C38091150390914F
:1057D00016030E94361B8091FC03882341F010922F
:1057E000FC0380911303909114030E94361B8AEBF3
:1057F00095E00E94BA1A882389F18AEB95E00E940D
:10580000B01A882351F081E080930D049091300309
:10581000992329F08093140402C010920D04809102
:105820000D04882349F080912C038111EEC28091F0
:10583000110390911203F0C2809111039091120311
:105840000E94361B8091FB03882341F01092FB03DA
:1058500080910F03909110030E94361B8EE995E012
:105860000E94BA1A882359F18EE995E00E94B01A75
:10587000882321F081E080930C0402C010920C0474
:1058800080910C04882349F080912C038111C7C2B8
:1058900080910D0390910E03C9C280910D039091E8
:1058A0000E030E94361B8091FA03882341F0109268
:1058B000FA0380910B0390910C030E94361B80E940
:1058C00095E00E94BA1A882359F180E995E00E9478
:1058D000B01A882321F081E080930B0402C010925B
:1058E0000B0480910B04882349F080912C038111D3
:1058F000A0C28091090390910A03A2C2809109037A
:1059000090910A030E94361B8091F903882341F08D
:105910001092F90380910703909108030E94361BAF
:1059200080912F03882349F180910A04882329F16B
:105930006090060470900704809008049090090419
:105940006114710481049104C1F00E949E14DC0171
:10595000CB0186199709A809B909893B9B40A10584
:10596000B10558F081E080932E0310920604109246
:105970000704109208041092090482E895E00E943E
:10598000BA1A8823C9F182E895E00E94B01A8823E8
:1059900091F081E080930A0480912F03882369F0BD
:1059A0000E949E1460930604709307048093080479
:1059B0009093090402C010920A0480910A0488237B
:1059C00049F080912C0381113EC280910503909192
:1059D000060340C280910503909106030E94361B86
:1059E0008091F803882341F01092F803809103031B
:1059F000909104030E94361B84E795E00E94BA1A36
:105A0000882359F184E795E00E94B01A882321F099
:105A100081E08093050402C0109205048091050482
:105A2000882349F080912C03811117C280910103D2
:105A30009091020319C280910103909102030E9488
:105A4000361B8091F703882341F01092F703809171
:105A5000FF02909100030E94361B82EF95E00E94A6
:105A6000BA1A882331F18091FA05857090912D033F
:105A7000853009F0FCC181E08093040480912C03FF
:105A8000992329F090913203992309F412C28823B3
:105A900009F41EC280910404882309F4F6C18091A0
:105AA0002C03811126C28091FD029091FE020E947A
:105AB000671B80913C03882321F081E080932903B8
:105AC00005C08091390381111092290380913B0315
:105AD000882321F081E08093280305C0809138035A
